{
  "_format": "hh-sol-artifact-1",
  "contractName": "CarbonFootprintRegistry",
  "sourceName": "contracts/CarbonFootprint.sol",
  "abi": [
    {
      "inputs": [
        {
          "internalType": "address",
          "name": "",
          "type": "address"
        },
        {
          "internalType": "uint256",
          "name": "",
          "type": "uint256"
        }
      ],
      "name": "companyFootprints",
      "outputs": [
        {
          "internalType": "uint256",
          "name": "footprint",
          "type": "uint256"
        },
        {
          "internalType": "uint256",
          "name": "timestamp",
          "type": "uint256"
        }
      ],
      "stateMutability": "view",
      "type": "function"
    },
    {
      "inputs": [],
      "name": "getFootprints",
      "outputs": [
        {
          "components": [
            {
              "internalType": "uint256",
              "name": "footprint",
              "type": "uint256"
            },
            {
              "internalType": "uint256",
              "name": "timestamp",
              "type": "uint256"
            }
          ],
          "internalType": "struct CarbonFootprintRegistry.FootprintRecord[]",
          "name": "",
          "type": "tuple[]"
        }
      ],
      "stateMutability": "view",
      "type": "function"
    },
    {
      "inputs": [
        {
          "internalType": "uint256",
          "name": "_footprint",
          "type": "uint256"
        }
      ],
      "name": "submitFootprint",
      "outputs": [],
      "stateMutability": "nonpayable",
      "type": "function"
    }
  ],
  "bytecode": "0x608060405234801561001057600080fd5b5061066e806100206000396000f3fe608060405234801561001057600080fd5b50600436106100415760003560e01c806308484ff7146100465780638d7b72a414610064578063ccb7063a14610080575b600080fd5b61004e6100b1565b60405161005b9190610519565b60405180910390f35b61007e600480360381019061007991906103c7565b610160565b005b61009a6004803603810190610095919061038b565b610320565b6040516100a892919061055b565b60405180910390f35b60606000803373ffffffffffffffffffffffffffffffffffffffff1673ffffffffffffffffffffffffffffffffffffffff168152602001908152602001600020805480602002602001604051908101604052809291908181526020016000905b8282101561015757838290600052602060002090600202016040518060400160405290816000820154815260200160018201548152505081526020019060010190610111565b50505050905090565b600081116101a3576040517f08c379a000000000000000000000000000000000000000000000000000000000815260040161019a9061053b565b60405180910390fd5b600042905060008060003373ffffffffffffffffffffffffffffffffffffffff1673ffffffffffffffffffffffffffffffffffffffff168152602001908152602001600020805490501415610289576000803373ffffffffffffffffffffffffffffffffffffffff1673ffffffffffffffffffffffffffffffffffffffff16815260200190815260200160002060405180604001604052808481526020018381525090806001815401808255809150506001900390600052602060002090600202016000909190919091506000820151816000015560208201518160010155505061031c565b6000803373ffffffffffffffffffffffffffffffffffffffff1673ffffffffffffffffffffffffffffffffffffffff1681526020019081526020016000206040518060400160405280848152602001838152509080600181540180825580915050600190039060005260206000209060020201600090919091909150600082015181600001556020820151816001015550505b5050565b6000602052816000526040600020818154811061033c57600080fd5b9060005260206000209060020201600091509150508060000154908060010154905082565b6000813590506103708161060a565b92915050565b60008135905061038581610621565b92915050565b6000806040838503121561039e57600080fd5b60006103ac85828601610361565b92505060206103bd85828601610376565b9150509250929050565b6000602082840312156103d957600080fd5b60006103e784828501610376565b91505092915050565b60006103fc83836104cc565b60408301905092915050565b600061041382610594565b61041d81856105ac565b935061042883610584565b8060005b8381101561045957815161044088826103f0565b975061044b8361059f565b92505060018101905061042c565b5085935050505092915050565b60006104736028836105bd565b91507f546f74616c20656d697373696f6e206d7573742062652067726561746572207460008301527f68616e207a65726f0000000000000000000000000000000000000000000000006020830152604082019050919050565b6040820160008201516104e260008501826104fb565b5060208201516104f560208501826104fb565b50505050565b61050481610600565b82525050565b61051381610600565b82525050565b600060208201905081810360008301526105338184610408565b905092915050565b6000602082019050818103600083015261055481610466565b9050919050565b6000604082019050610570600083018561050a565b61057d602083018461050a565b9392505050565b6000819050602082019050919050565b600081519050919050565b6000602082019050919050565b600082825260208201905092915050565b600082825260208201905092915050565b60006105d9826105e0565b9050919050565b600073ffffffffffffffffffffffffffffffffffffffff82169050919050565b6000819050919050565b610613816105ce565b811461061e57600080fd5b50565b61062a81610600565b811461063557600080fd5b5056fea26469706673582212202dd10bf3e4c1a5476d47c0ca7370dd1d530f8af862dfe6f7df0abe4d298dfef264736f6c63430008000033",
  "linkReferences": {},
  "deployedLinkReferences": {}
}